{
  "_format": "hh-sol-artifact-1",
  "contractName": "ProofRegistry",
  "sourceName": "contracts/ProofRegistry.sol",
  "abi": [
    {
      "inputs": [
        {
          "internalType": "address",
          "name": "defaultAdmin",
          "type": "address"
        },
        {
          "internalType": "address",
          "name": "oracle",
          "type": "address"
        }
      ],
      "stateMutability": "nonpayable",
      "type": "constructor"
    },
    {
      "inputs": [],
      "name": "AccessControlBadConfirmation",
      "type": "error"
    },
    {
      "inputs": [
        {
          "internalType": "address",
          "name": "account",
          "type": "address"
        },
        {
          "internalType": "bytes32",
          "name": "neededRole",
          "type": "bytes32"
        }
      ],
      "name": "AccessControlUnauthorizedAccount",
      "type": "error"
    },
    {
      "inputs": [],
      "name": "EnforcedPause",
      "type": "error"
    },
    {
      "inputs": [],
      "name": "ExpectedPause",
      "type": "error"
    },
    {
      "inputs": [],
      "name": "ReentrancyGuardReentrantCall",
      "type": "error"
    },
    {
      "anonymous": false,
      "inputs": [
        {
          "indexed": true,
          "internalType": "uint256",
          "name": "batchId",
          "type": "uint256"
        },
        {
          "indexed": true,
          "internalType": "bytes32",
          "name": "root",
          "type": "bytes32"
        },
        {
          "indexed": false,
          "internalType": "string",
          "name": "reason",
          "type": "string"
        }
      ],
      "name": "BatchRevoked",
      "type": "event"
    },
    {
      "anonymous": false,
      "inputs": [
        {
          "indexed": true,
          "internalType": "uint256",
          "name": "batchId",
          "type": "uint256"
        },
        {
          "indexed": true,
          "internalType": "bytes32",
          "name": "root",
          "type": "bytes32"
        }
      ],
      "name": "BatchVerified",
      "type": "event"
    },
    {
      "anonymous": false,
      "inputs": [
        {
          "indexed": false,
          "internalType": "address",
          "name": "account",
          "type": "address"
        }
      ],
      "name": "Paused",
      "type": "event"
    },
    {
      "anonymous": false,
      "inputs": [
        {
          "indexed": true,
          "internalType": "uint256",
          "name": "batchId",
          "type": "uint256"
        },
        {
          "indexed": true,
          "internalType": "bytes32",
          "name": "root",
          "type": "bytes32"
        },
        {
          "indexed": true,
          "internalType": "enum ProofRegistry.BatchType",
          "name": "batchType",
          "type": "uint8"
        },
        {
          "indexed": false,
          "internalType": "uint64",
          "name": "startTimestamp",
          "type": "uint64"
        },
        {
          "indexed": false,
          "internalType": "uint64",
          "name": "endTimestamp",
          "type": "uint64"
        },
        {
          "indexed": false,
          "internalType": "string",
          "name": "uri",
          "type": "string"
        },
        {
          "indexed": false,
          "internalType": "address",
          "name": "publisher",
          "type": "address"
        },
        {
          "indexed": false,
          "internalType": "uint32",
          "name": "entryCount",
          "type": "uint32"
        }
      ],
      "name": "ProofPublished",
      "type": "event"
    },
    {
      "anonymous": false,
      "inputs": [
        {
          "indexed": true,
          "internalType": "bytes32",
          "name": "role",
          "type": "bytes32"
        },
        {
          "indexed": true,
          "internalType": "bytes32",
          "name": "previousAdminRole",
          "type": "bytes32"
        },
        {
          "indexed": true,
          "internalType": "bytes32",
          "name": "newAdminRole",
          "type": "bytes32"
        }
      ],
      "name": "RoleAdminChanged",
      "type": "event"
    },
    {
      "anonymous": false,
      "inputs": [
        {
          "indexed": true,
          "internalType": "bytes32",
          "name": "role",
          "type": "bytes32"
        },
        {
          "indexed": true,
          "internalType": "address",
          "name": "account",
          "type": "address"
        },
        {
          "indexed": true,
          "internalType": "address",
          "name": "sender",
          "type": "address"
        }
      ],
      "name": "RoleGranted",
      "type": "event"
    },
    {
      "anonymous": false,
      "inputs": [
        {
          "indexed": true,
          "internalType": "bytes32",
          "name": "role",
          "type": "bytes32"
        },
        {
          "indexed": true,
          "internalType": "address",
          "name": "account",
          "type": "address"
        },
        {
          "indexed": true,
          "internalType": "address",
          "name": "sender",
          "type": "address"
        }
      ],
      "name": "RoleRevoked",
      "type": "event"
    },
    {
      "anonymous": false,
      "inputs": [
        {
          "indexed": false,
          "internalType": "address",
          "name": "account",
          "type": "address"
        }
      ],
      "name": "Unpaused",
      "type": "event"
    },
    {
      "inputs": [],
      "name": "DEFAULT_ADMIN_ROLE",
      "outputs": [
        {
          "internalType": "bytes32",
          "name": "",
          "type": "bytes32"
        }
      ],
      "stateMutability": "view",
      "type": "function"
    },
    {
      "inputs": [],
      "name": "ORACLE_ROLE",
      "outputs": [
        {
          "internalType": "bytes32",
          "name": "",
          "type": "bytes32"
        }
      ],
      "stateMutability": "view",
      "type": "function"
    },
    {
      "inputs": [],
      "name": "PAUSER_ROLE",
      "outputs": [
        {
          "internalType": "bytes32",
          "name": "",
          "type": "bytes32"
        }
      ],
      "stateMutability": "view",
      "type": "function"
    },
    {
      "inputs": [
        {
          "internalType": "uint256",
          "name": "",
          "type": "uint256"
        }
      ],
      "name": "batches",
      "outputs": [
        {
          "internalType": "bytes32",
          "name": "root",
          "type": "bytes32"
        },
        {
          "internalType": "enum ProofRegistry.BatchType",
          "name": "batchType",
          "type": "uint8"
        },
        {
          "internalType": "uint64",
          "name": "startTimestamp",
          "type": "uint64"
        },
        {
          "internalType": "uint64",
          "name": "endTimestamp",
          "type": "uint64"
        },
        {
          "internalType": "string",
          "name": "uri",
          "type": "string"
        },
        {
          "internalType": "address",
          "name": "publisher",
          "type": "address"
        },
        {
          "internalType": "uint32",
          "name": "entryCount",
          "type": "uint32"
        },
        {
          "internalType": "bool",
          "name": "verified",
          "type": "bool"
        }
      ],
      "stateMutability": "view",
      "type": "function"
    },
    {
      "inputs": [
        {
          "internalType": "enum ProofRegistry.BatchType",
          "name": "",
          "type": "uint8"
        },
        {
          "internalType": "uint256",
          "name": "",
          "type": "uint256"
        }
      ],
      "name": "batchesByType",
      "outputs": [
        {
          "internalType": "uint256",
          "name": "",
          "type": "uint256"
        }
      ],
      "stateMutability": "view",
      "type": "function"
    },
    {
      "inputs": [
        {
          "internalType": "uint256",
          "name": "batchId",
          "type": "uint256"
        }
      ],
      "name": "getBatch",
      "outputs": [
        {
          "components": [
            {
              "internalType": "bytes32",
              "name": "root",
              "type": "bytes32"
            },
            {
              "internalType": "enum ProofRegistry.BatchType",
              "name": "batchType",
              "type": "uint8"
            },
            {
              "internalType": "uint64",
              "name": "startTimestamp",
              "type": "uint64"
            },
            {
              "internalType": "uint64",
              "name": "endTimestamp",
              "type": "uint64"
            },
            {
              "internalType": "string",
              "name": "uri",
              "type": "string"
            },
            {
              "internalType": "address",
              "name": "publisher",
              "type": "address"
            },
            {
              "internalType": "uint32",
              "name": "entryCount",
              "type": "uint32"
            },
            {
              "internalType": "bool",
              "name": "verified",
              "type": "bool"
            }
          ],
          "internalType": "struct ProofRegistry.Batch",
          "name": "",
          "type": "tuple"
        }
      ],
      "stateMutability": "view",
      "type": "function"
    },
    {
      "inputs": [],
      "name": "getBatchCount",
      "outputs": [
        {
          "internalType": "uint256",
          "name": "",
          "type": "uint256"
        }
      ],
      "stateMutability": "view",
      "type": "function"
    },
    {
      "inputs": [
        {
          "internalType": "uint8",
          "name": "batchType",
          "type": "uint8"
        }
      ],
      "name": "getBatchCountByType",
      "outputs": [
        {
          "internalType": "uint256",
          "name": "",
          "type": "uint256"
        }
      ],
      "stateMutability": "view",
      "type": "function"
    },
    {
      "inputs": [
        {
          "internalType": "bytes32",
          "name": "root",
          "type": "bytes32"
        }
      ],
      "name": "getBatchIdByRoot",
      "outputs": [
        {
          "internalType": "uint256",
          "name": "",
          "type": "uint256"
        }
      ],
      "stateMutability": "view",
      "type": "function"
    },
    {
      "inputs": [
        {
          "internalType": "uint8",
          "name": "batchType",
          "type": "uint8"
        },
        {
          "internalType": "uint256",
          "name": "offset",
          "type": "uint256"
        },
        {
          "internalType": "uint256",
          "name": "limit",
          "type": "uint256"
        }
      ],
      "name": "getBatchesByType",
      "outputs": [
        {
          "internalType": "uint256[]",
          "name": "batchIds",
          "type": "uint256[]"
        }
      ],
      "stateMutability": "view",
      "type": "function"
    },
    {
      "inputs": [
        {
          "internalType": "bytes32",
          "name": "role",
          "type": "bytes32"
        }
      ],
      "name": "getRoleAdmin",
      "outputs": [
        {
          "internalType": "bytes32",
          "name": "",
          "type": "bytes32"
        }
      ],
      "stateMutability": "view",
      "type": "function"
    },
    {
      "inputs": [
        {
          "internalType": "bytes32",
          "name": "role",
          "type": "bytes32"
        },
        {
          "internalType": "address",
          "name": "account",
          "type": "address"
        }
      ],
      "name": "grantRole",
      "outputs": [],
      "stateMutability": "nonpayable",
      "type": "function"
    },
    {
      "inputs": [
        {
          "internalType": "bytes32",
          "name": "role",
          "type": "bytes32"
        },
        {
          "internalType": "address",
          "name": "account",
          "type": "address"
        }
      ],
      "name": "hasRole",
      "outputs": [
        {
          "internalType": "bool",
          "name": "",
          "type": "bool"
        }
      ],
      "stateMutability": "view",
      "type": "function"
    },
    {
      "inputs": [],
      "name": "nextBatchId",
      "outputs": [
        {
          "internalType": "uint256",
          "name": "",
          "type": "uint256"
        }
      ],
      "stateMutability": "view",
      "type": "function"
    },
    {
      "inputs": [],
      "name": "pause",
      "outputs": [],
      "stateMutability": "nonpayable",
      "type": "function"
    },
    {
      "inputs": [],
      "name": "paused",
      "outputs": [
        {
          "internalType": "bool",
          "name": "",
          "type": "bool"
        }
      ],
      "stateMutability": "view",
      "type": "function"
    },
    {
      "inputs": [
        {
          "internalType": "bytes32",
          "name": "root",
          "type": "bytes32"
        },
        {
          "internalType": "uint8",
          "name": "batchType",
          "type": "uint8"
        },
        {
          "internalType": "uint64",
          "name": "startTimestamp",
          "type": "uint64"
        },
        {
          "internalType": "uint64",
          "name": "endTimestamp",
          "type": "uint64"
        },
        {
          "internalType": "string",
          "name": "uri",
          "type": "string"
        },
        {
          "internalType": "uint32",
          "name": "entryCount",
          "type": "uint32"
        }
      ],
      "name": "publishBatch",
      "outputs": [
        {
          "internalType": "uint256",
          "name": "batchId",
          "type": "uint256"
        }
      ],
      "stateMutability": "nonpayable",
      "type": "function"
    },
    {
      "inputs": [
        {
          "internalType": "bytes32",
          "name": "role",
          "type": "bytes32"
        },
        {
          "internalType": "address",
          "name": "callerConfirmation",
          "type": "address"
        }
      ],
      "name": "renounceRole",
      "outputs": [],
      "stateMutability": "nonpayable",
      "type": "function"
    },
    {
      "inputs": [
        {
          "internalType": "uint256",
          "name": "batchId",
          "type": "uint256"
        },
        {
          "internalType": "string",
          "name": "reason",
          "type": "string"
        }
      ],
      "name": "revokeBatch",
      "outputs": [],
      "stateMutability": "nonpayable",
      "type": "function"
    },
    {
      "inputs": [
        {
          "internalType": "bytes32",
          "name": "role",
          "type": "bytes32"
        },
        {
          "internalType": "address",
          "name": "account",
          "type": "address"
        }
      ],
      "name": "revokeRole",
      "outputs": [],
      "stateMutability": "nonpayable",
      "type": "function"
    },
    {
      "inputs": [
        {
          "internalType": "bytes32",
          "name": "",
          "type": "bytes32"
        }
      ],
      "name": "rootToBatchId",
      "outputs": [
        {
          "internalType": "uint256",
          "name": "",
          "type": "uint256"
        }
      ],
      "stateMutability": "view",
      "type": "function"
    },
    {
      "inputs": [
        {
          "internalType": "bytes4",
          "name": "interfaceId",
          "type": "bytes4"
        }
      ],
      "name": "supportsInterface",
      "outputs": [
        {
          "internalType": "bool",
          "name": "",
          "type": "bool"
        }
      ],
      "stateMutability": "view",
      "type": "function"
    },
    {
      "inputs": [],
      "name": "unpause",
      "outputs": [],
      "stateMutability": "nonpayable",
      "type": "function"
    },
    {
      "inputs": [
        {
          "internalType": "uint256",
          "name": "batchId",
          "type": "uint256"
        }
      ],
      "name": "verifyBatch",
      "outputs": [],
      "stateMutability": "nonpayable",
      "type": "function"
    },
    {
      "inputs": [
        {
          "internalType": "uint256",
          "name": "batchId",
          "type": "uint256"
        },
        {
          "internalType": "bytes32",
          "name": "leaf",
          "type": "bytes32"
        },
        {
          "internalType": "bytes32[]",
          "name": "proof",
          "type": "bytes32[]"
        }
      ],
      "name": "verifyProof",
      "outputs": [
        {
          "internalType": "bool",
          "name": "",
          "type": "bool"
        }
      ],
      "stateMutability": "view",
      "type": "function"
    }
  ],
  "bytecode": "0x60806040523480156200001157600080fd5b506040516200212b3803806200212b833981016040819052620000349162000247565b600180556001600160a01b038216620000a05760405162461bcd60e51b8152602060048201526024808201527f50726f6f6652656769737472793a20696e76616c69642061646d696e206164646044820152637265737360e01b60648201526084015b60405180910390fd5b6001600160a01b038116620001065760405162461bcd60e51b815260206004820152602560248201527f50726f6f6652656769737472793a20696e76616c6964206f7261636c65206164604482015264647265737360d81b606482015260840162000097565b620001136000836200017b565b50620001407f68e79a7bf1e0bc45d0a330c573bc367f9cf464fd326078812f301165fbda4ef1826200017b565b506200016d7f65d7a28e3265b37a6474929f336521b332c1681b933f6cb9f3376673440d862a836200017b565b50506001600355506200027f565b6000828152602081815260408083206001600160a01b038516845290915281205460ff1662000220576000838152602081815260408083206001600160a01b03861684529091529020805460ff19166001179055620001d73390565b6001600160a01b0316826001600160a01b0316847f2f8788117e7eff1d82e926ec794901d17c78024a50270940304540a733656f0d60405160405180910390a450600162000224565b5060005b92915050565b80516001600160a01b03811681146200024257600080fd5b919050565b600080604083850312156200025b57600080fd5b62000266836200022a565b915062000276602084016200022a565b90509250929050565b611e9c806200028f6000396000f3fe608060405234801561001057600080fd5b50600436106101735760003560e01c80638456cb59116100de578063b32c4d8d11610097578063d547741f11610071578063d547741f1461035a578063d7a6e3141461036d578063dfe3a3ae14610380578063e63ab1e91461039357600080fd5b8063b32c4d8d1461030d578063c48555c414610334578063d27c01401461034757600080fd5b80638456cb59146102b95780638462a7f8146102c1578063846b06bc146102ca57806391d14854146102ea578063a217fddf146102fd578063a8fabfa51461030557600080fd5b806336568abe1161013057806336568abe146102405780633f4ba83a146102535780635ac442821461025b5780635c975abb1461027b5780636c252aea1461028657806379750f3d146102a657600080fd5b806301ffc9a71461017857806307e2cea5146101a057806318c56c3d146101d55780631a1423aa146101e8578063248a9ca3146102085780632f2ff15d1461022b575b600080fd5b61018b610186366004611697565b6103ba565b60405190151581526020015b60405180910390f35b6101c77f68e79a7bf1e0bc45d0a330c573bc367f9cf464fd326078812f301165fbda4ef181565b604051908152602001610197565b6101c76101e33660046116d7565b6103f1565b6101fb6101f63660046116f2565b610472565b6040516101979190611725565b6101c7610216366004611769565b60009081526020819052604090206001015490565b61023e610239366004611782565b61065a565b005b61023e61024e366004611782565b610685565b61023e6106bd565b61026e610269366004611769565b6106f2565b604051610197919061183c565b60025460ff1661018b565b6101c7610294366004611769565b60056020526000908152604090205481565b6101c76102b436600461193f565b6108ad565b61023e610d98565b6101c760035481565b6101c76102d8366004611769565b60009081526005602052604090205490565b61018b6102f8366004611782565b610dca565b6101c7600081565b6101c7610df3565b61032061031b366004611769565b610e09565b6040516101979897969594939291906119da565b61018b610342366004611a4b565b610efb565b6101c7610355366004611acd565b6110de565b61023e610368366004611782565b61110f565b61023e61037b366004611afd565b611134565b61023e61038e366004611769565b61123e565b6101c77f65d7a28e3265b37a6474929f336521b332c1681b933f6cb9f3376673440d862a81565b60006001600160e01b03198216637965db0b60e01b14806103eb57506301ffc9a760e01b6001600160e01b03198316145b92915050565b6000600360ff831611156104205760405162461bcd60e51b815260040161041790611b48565b60405180910390fd5b600660008360ff166003811115610439576104396117be565b600381111561044a5761044a6117be565b600381111561045b5761045b6117be565b815260208101919091526040016000205492915050565b6060600360ff851611156104985760405162461bcd60e51b815260040161041790611b48565b6000821180156104a9575060648211155b6104f55760405162461bcd60e51b815260206004820152601c60248201527f50726f6f6652656769737472793a20696e76616c6964206c696d6974000000006044820152606401610417565b60008460ff16600381111561050c5761050c6117be565b9050600060066000836003811115610526576105266117be565b6003811115610537576105376117be565b815260200190815260200160002090508080549050851061056a5750506040805160008152602081019091529050610653565b60006105768587611bb5565b8254909150811115610586575080545b6105908682611bc8565b6001600160401b038111156105a7576105a7611b89565b6040519080825280602002602001820160405280156105d0578160200160208202803683370190505b509350855b8181101561064e578254839082906105ef90600190611bc8565b6105f99190611bc8565b8154811061060957610609611bdb565b90600052602060002001548588836106219190611bc8565b8151811061063157610631611bdb565b60209081029190910101528061064681611bf1565b9150506105d5565b505050505b9392505050565b60008281526020819052604090206001015461067581611354565b61067f838361135e565b50505050565b6001600160a01b03811633146106ae5760405163334bd91960e11b815260040160405180910390fd5b6106b882826113f0565b505050565b7f65d7a28e3265b37a6474929f336521b332c1681b933f6cb9f3376673440d862a6106e781611354565b6106ef61145b565b50565b60408051610100810182526000808252602082018190529181018290526060808201839052608082015260a0810182905260c0810182905260e0810191909152600082118015610743575060035482105b61075f5760405162461bcd60e51b815260040161041790611c0a565b60008281526004602090815260409182902082516101008101909352805483526001810154909183019060ff16600381111561079d5761079d6117be565b60038111156107ae576107ae6117be565b815260018201546001600160401b03610100820481166020840152600160481b9091041660408201526002820180546060909201916107ec90611c41565b80601f016020809104026020016040519081016040528092919081815260200182805461081890611c41565b80156108655780601f1061083a57610100808354040283529160200191610865565b820191906000526020600020905b81548152906001019060200180831161084857829003601f168201915b5050509183525050600391909101546001600160a01b0381166020830152600160a01b810463ffffffff166040830152600160c01b900460ff16151560609091015292915050565b60007f68e79a7bf1e0bc45d0a330c573bc367f9cf464fd326078812f301165fbda4ef16108d981611354565b6108e16114ad565b6108e96114d3565b886109365760405162461bcd60e51b815260206004820152601b60248201527f50726f6f6652656769737472793a20696e76616c696420726f6f7400000000006044820152606401610417565b600360ff8916111561095a5760405162461bcd60e51b815260040161041790611b48565b856001600160401b0316876001600160401b0316106109ca5760405162461bcd60e51b815260206004820152602660248201527f50726f6f6652656769737472793a20696e76616c69642074696d657374616d706044820152652072616e676560d01b6064820152608401610417565b42866001600160401b03161115610a325760405162461bcd60e51b815260206004820152602660248201527f50726f6f6652656769737472793a20656e642074696d657374616d7020696e2060448201526566757475726560d01b6064820152608401610417565b60008363ffffffff1611610a9c5760405162461bcd60e51b815260206004820152602b60248201527f50726f6f6652656769737472793a20656e74727920636f756e74206d7573742060448201526a626520706f73697469766560a81b6064820152608401610417565b60008981526005602052604090205415610b035760405162461bcd60e51b815260206004820152602260248201527f50726f6f6652656769737472793a20726f6f7420616c72656164792065786973604482015261747360f01b6064820152608401610417565b60038054906000610b1383611bf1565b91905055915060008860ff166003811115610b3057610b306117be565b90506040518061010001604052808b8152602001826003811115610b5657610b566117be565b8152602001896001600160401b03168152602001886001600160401b0316815260200187878080601f016020809104026020016040519081016040528093929190818152602001838380828437600092018290525093855250503360208085019190915263ffffffff8916604080860191909152606090940183905287835260048152929091208351815591830151600183810180549293509160ff191690836003811115610c0757610c076117be565b0217905550604082015160018201805460608501516001600160401b03908116600160481b0270ffffffffffffffff0000000000000000001991909416610100021670ffffffffffffffffffffffffffffffff00199091161791909117905560808201516002820190610c7a9082611cc9565b5060a08201516003918201805460c085015160e0909501511515600160c01b0260ff60c01b1963ffffffff909616600160a01b026001600160c01b03199092166001600160a01b039094169390931717939093161790915560008b81526005602052604081208590556006918390811115610cf757610cf76117be565b6003811115610d0857610d086117be565b81526020808201929092526040016000908120805460018101825590825291902001839055806003811115610d3f57610d3f6117be565b8a847f78180fc79f59d7d9138d98c33def47609f1eafea9da927659faef9f860f2067e8b8b8b8b338c604051610d7a96959493929190611db1565b60405180910390a450610d8c60018055565b50979650505050505050565b7f65d7a28e3265b37a6474929f336521b332c1681b933f6cb9f3376673440d862a610dc281611354565b6106ef6114fd565b6000918252602082815260408084206001600160a01b0393909316845291905290205460ff1690565b60006001600354610e049190611bc8565b905090565b600460205260009081526040902080546001820154600283018054929360ff8316936001600160401b036101008504811694600160481b9004169290610e4e90611c41565b80601f0160208091040260200160405190810160405280929190818152602001828054610e7a90611c41565b8015610ec75780601f10610e9c57610100808354040283529160200191610ec7565b820191906000526020600020905b815481529060010190602001808311610eaa57829003601f168201915b505050600390930154919250506001600160a01b0381169063ffffffff600160a01b8204169060ff600160c01b9091041688565b60008085118015610f0d575060035485105b610f295760405162461bcd60e51b815260040161041790611c0a565b600085815260046020908152604080832081516101008101909252805482526001810154919290919083019060ff166003811115610f6957610f696117be565b6003811115610f7a57610f7a6117be565b815260018201546001600160401b03610100820481166020840152600160481b909104166040820152600282018054606090920191610fb890611c41565b80601f0160208091040260200160405190810160405280929190818152602001828054610fe490611c41565b80156110315780601f1061100657610100808354040283529160200191611031565b820191906000526020600020905b81548152906001019060200180831161101457829003601f168201915b5050509183525050600391909101546001600160a01b0381166020830152600160a01b810463ffffffff166040830152600160c01b900460ff16151560609091015280519091506110945760405162461bcd60e51b815260040161041790611e07565b6110d4848480806020026020016040519081016040528093929190818152602001838360200280828437600092019190915250508451915088905061153a565b9695505050505050565b600660205281600052604060002081815481106110fa57600080fd5b90600052602060002001600091509150505481565b60008281526020819052604090206001015461112a81611354565b61067f83836113f0565b600061113f81611354565b600084118015611150575060035484105b61116c5760405162461bcd60e51b815260040161041790611c0a565b600084815260046020526040902080546111985760405162461bcd60e51b815260040161041790611e07565b8054600090815260056020526040808220919091558154905186907f6fc17e3b080adbc7a1935c4aaf33f1a35bb03abaeddda0a3e084d4c346f45932906111e29088908890611e4a565b60405180910390a3600085815260046020526040812081815560018101805470ffffffffffffffffffffffffffffffffff19169055906112256002830182611649565b5060030180546001600160c81b03191690555050505050565b7f68e79a7bf1e0bc45d0a330c573bc367f9cf464fd326078812f301165fbda4ef161126881611354565b600082118015611279575060035482105b6112955760405162461bcd60e51b815260040161041790611c0a565b60008281526004602052604090206003810154600160c01b900460ff161561130d5760405162461bcd60e51b815260206004820152602560248201527f50726f6f6652656769737472793a20626174636820616c7265616479207665726044820152641a599a595960da1b6064820152608401610417565b60038101805460ff60c01b1916600160c01b179055805460405184907f7732ca3a9c707666d6c3db040a37588625ad8dad0ff418b22f35cd2844078a7990600090a3505050565b6106ef81336115e9565b600061136a8383610dca565b6113e8576000838152602081815260408083206001600160a01b03861684529091529020805460ff191660011790556113a03390565b6001600160a01b0316826001600160a01b0316847f2f8788117e7eff1d82e926ec794901d17c78024a50270940304540a733656f0d60405160405180910390a45060016103eb565b5060006103eb565b60006113fc8383610dca565b156113e8576000838152602081815260408083206001600160a01b0386168085529252808320805460ff1916905551339286917ff6391f5c32d9c69d2a47ea670b442974b53935d1edc7fd64eb21e047a839171b9190a45060016103eb565b611463611626565b6002805460ff191690557f5db9ee0a495bf2e6ff9c91a7834c1ba4fdd244a5e8aa4e537bd38aeae4b073aa335b6040516001600160a01b03909116815260200160405180910390a1565b60025460ff16156114d15760405163d93c066560e01b815260040160405180910390fd5b565b6002600154036114f657604051633ee5aeb560e01b815260040160405180910390fd5b6002600155565b6115056114ad565b6002805460ff191660011790557f62e78cea01bee320cd4e420270b5ea74000d11b0c9f74754ebdbfc544b05a2586114903390565b600081815b85518110156115de57600086828151811061155c5761155c611bdb565b6020026020010151905080831161159e5760408051602081018590529081018290526060016040516020818303038152906040528051906020012092506115cb565b60408051602081018390529081018490526060016040516020818303038152906040528051906020012092505b50806115d681611bf1565b91505061153f565b509092149392505050565b6115f38282610dca565b6116225760405163e2517d3f60e01b81526001600160a01b038216600482015260248101839052604401610417565b5050565b60025460ff166114d157604051638dfc202b60e01b815260040160405180910390fd5b50805461165590611c41565b6000825580601f10611665575050565b601f0160209004906000526020600020908101906106ef91905b80821115611693576000815560010161167f565b5090565b6000602082840312156116a957600080fd5b81356001600160e01b03198116811461065357600080fd5b803560ff811681146116d257600080fd5b919050565b6000602082840312156116e957600080fd5b610653826116c1565b60008060006060848603121561170757600080fd5b611710846116c1565b95602085013595506040909401359392505050565b6020808252825182820181905260009190848201906040850190845b8181101561175d57835183529284019291840191600101611741565b50909695505050505050565b60006020828403121561177b57600080fd5b5035919050565b6000806040838503121561179557600080fd5b8235915060208301356001600160a01b03811681146117b357600080fd5b809150509250929050565b634e487b7160e01b600052602160045260246000fd5b600481106117f257634e487b7160e01b600052602160045260246000fd5b9052565b6000815180845260005b8181101561181c57602081850181015186830182015201611800565b506000602082860101526020601f19601f83011685010191505092915050565b60208152815160208201526000602083015161185b60408401826117d4565b5060408301516001600160401b038082166060850152806060860151166080850152505060808301516101008060a085015261189b6101208501836117f6565b915060a08501516118b760c08601826001600160a01b03169052565b5060c085015163ffffffff811660e08601525060e0850151801515858301525090949350505050565b80356001600160401b03811681146116d257600080fd5b60008083601f84011261190957600080fd5b5081356001600160401b0381111561192057600080fd5b60208301915083602082850101111561193857600080fd5b9250929050565b600080600080600080600060c0888a03121561195a57600080fd5b8735965061196a602089016116c1565b9550611978604089016118e0565b9450611986606089016118e0565b935060808801356001600160401b038111156119a157600080fd5b6119ad8a828b016118f7565b90945092505060a088013563ffffffff811681146119ca57600080fd5b8091505092959891949750929550565b60006101008a83526119ef602084018b6117d4565b6001600160401b0389811660408501528816606084015260808301819052611a19818401886117f6565b6001600160a01b039690961660a0840152505063ffffffff9290921660c0830152151560e09091015295945050505050565b60008060008060608587031215611a6157600080fd5b843593506020850135925060408501356001600160401b0380821115611a8657600080fd5b818701915087601f830112611a9a57600080fd5b813581811115611aa957600080fd5b8860208260051b8501011115611abe57600080fd5b95989497505060200194505050565b60008060408385031215611ae057600080fd5b823560048110611aef57600080fd5b946020939093013593505050565b600080600060408486031215611b1257600080fd5b8335925060208401356001600160401b03811115611b2f57600080fd5b611b3b868287016118f7565b9497909650939450505050565b60208082526021908201527f50726f6f6652656769737472793a20696e76616c6964206261746368207479706040820152606560f81b606082015260800190565b634e487b7160e01b600052604160045260246000fd5b634e487b7160e01b600052601160045260246000fd5b808201808211156103eb576103eb611b9f565b818103818111156103eb576103eb611b9f565b634e487b7160e01b600052603260045260246000fd5b600060018201611c0357611c03611b9f565b5060010190565b6020808252601f908201527f50726f6f6652656769737472793a20696e76616c696420626174636820494400604082015260600190565b600181811c90821680611c5557607f821691505b602082108103611c7557634e487b7160e01b600052602260045260246000fd5b50919050565b601f8211156106b857600081815260208120601f850160051c81016020861015611ca25750805b601f850160051c820191505b81811015611cc157828155600101611cae565b505050505050565b81516001600160401b03811115611ce257611ce2611b89565b611cf681611cf08454611c41565b84611c7b565b602080601f831160018114611d2b5760008415611d135750858301515b600019600386901b1c1916600185901b178555611cc1565b600085815260208120601f198616915b82811015611d5a57888601518255948401946001909101908401611d3b565b5085821015611d785787850151600019600388901b60f8161c191681555b5050505050600190811b01905550565b81835281816020850137506000828201602090810191909152601f909101601f19169091010190565b60006001600160401b03808916835280881660208401525060a06040830152611dde60a083018688611d88565b6001600160a01b039490941660608301525063ffffffff91909116608090910152949350505050565b60208082526023908201527f50726f6f6652656769737472793a20626174636820646f6573206e6f742065786040820152621a5cdd60ea1b606082015260800190565b602081526000611e5e602083018486611d88565b94935050505056fea264697066735822122007b16389ef7ff620c7122e0c8283f429cac080bb9613a2929db7ca5560576e8764736f6c63430008140033",
  "linkReferences": {},
  "deployedLinkReferences": {}
}